:100000000C944B010C947C010C947C010C947C01AD
:100010000C947C010C947C010C947C010C947C016C
:100020000C947C010C947C010C947C010C947C015C
:100030000C947C010C947C010C947C010C947C014C
:100040000C947C010C947C010C947C010C947C013C
:100050000C947C010C947C010C947C010C94A803FE
:100060000C947C010C941C040C94F2030C947C0101
:100070000C947C010C947C010C947C010C947C010C
:100080000C947C010C947C010C947C010C947C01FC
:100090000C947C010C947C010C947C010C947C01EC
:1000A0000C947C010C947C010C947C010C947C01DC
:1000B0000C947C010C947C010C947C010C947C01CC
:1000C0000C947C010C947C010C947C010C947C01BC
:1000D0000C947C010C947C010C947C010C947C01AC
:1000E0000C947C01A901AC019B019F01A301E301D8
:1000F000B001B401BA01BE01C201C801CC01D001F6
:10010000E301D601DA01DE010C94C8010C949F01D1
:100110000C9452050C9492020C9439030C94BE0179
:100120000C9483020C94A6020C94AC010C94E30191
:100130000C94EC020C94A9010C94C2010C94D00113
:100140000C94DA010C94D6010C94BA010C94CC01F5
:100150000C9455020C94DE010C94B0010C949B019C
:100160000C94B4020C94A3010C94B401000021007F
:10017000240027002A002D00300033000101000078
:10018000040107010A0100002200250028002B00BD
:100190002E003100340002010000050108010B01AE
:1001A00005050505070508080808020202020A0AF3
:1001B0000808040404040101010101010101030311
:1001C000030303030303040707070C0C0C0C0C0CBC
:1001D0000C0C0202020206060606060606060B0BB9
:1001E0000B0B0B0B0B0B0A050A0A050A0A04040485
:1001F0000A01021020200808102040102040800230
:10020000010201080402010102040810204080805C
:1002100040201008040201800402018040201008E0
:1002200004020108040201010204081020408001B8
:1002300002040810204080084004808040201020E4
:10024000401000000A0B02090C0D0E080703040100
:10025000000000000000000000000000000000009E
:10026000000000000000000000000000000012116B
:10027000100000000000000000000000000000006E
:10028000000000000000000000000000000000006E
:1002900000000000520511241FBECFEFD1E2DEBFE7
:1002A000CDBF00E00CBF12E0A0E0B2E0E0E6FBE072
:1002B00000E00BBF02C007900D92A631B107D9F73D
:1002C00022E0A6E1B2E001C01D92AC3BB207E1F72B
:1002D00011E0CBE4D1E000E006C021970109802FB6
:1002E000FE010E94A105CA34D10780E00807A9F7E2
:1002F0000E9452040C94AE050C940000382FE6E4E2
:10030000F2E04491E5EFF1E02491E4EAF1E0949128
:10031000992309F46CC0442309F455C050E0FA0154
:100320003197E231F10508F04EC08827EE58FF4FB3
:100330008F4F0C94A105809180008F7707C080912A
:1003400080008F7D03C080918000877F8093800034
:100350003AC084B58F7702C084B58F7D84BD33C029
:100360008091B0008F7703C08091B0008F7D809323
:10037000B00029C0809190008F7707C080919000D5
:100380008F7D03C080919000877F809390001BC079
:100390008091A0008F7707C08091A0008F7D03C05F
:1003A0008091A000877F8093A0000DC080912001E4
:1003B0008F7707C0809120018F7D03C0809120013D
:1003C000877F80932001E92FF0E0EE0FFF1FEA57AF
:1003D000FE4FA591B4919FB7F894311104C08C9150
:1003E0002095282302C0EC912E2B2C939FBF0895BB
:1003F0003FB7F89480911B0290911C02A0911D02BE
:10040000B0911E0226B5A89B05C02F3F19F001969A
:10041000A11DB11D3FBFBA2FA92F982F8827820F8A
:10042000911DA11DB11DBC01CD0142E0660F771FDA
:10043000881F991F4A95D1F708958F929F92AF9286
:10044000BF92CF92DF92EF92FF920E94F8014B0190
:100450005C0188EEC82E83E0D82EE12CF12C0E949E
:10046000F801DC01CB0188199909AA09BB09883E6A
:100470009340A105B10598F321E0C21AD108E10823
:10048000F10888EE880E83E0981EA11CB11CC114EF
:10049000D104E104F10419F7FF90EF90DF90CF90C1
:1004A000BF90AF909F908F900895CF92DF92EF9280
:1004B000FF920F931F93CF93DF936C017A018B010F
:1004C000C0E0D0E0CE15DF0581F0D8016D918D013F
:1004D000D601ED91FC910190F081E02DC6011995B6
:1004E000892B11F02196EECF7E01C701DF91CF91CC
:1004F0001F910F91FF90EF90DF90CF900895089596
:1005000080E090E00895FC01538D448D252F30E06C
:10051000842F90E0821B930B541710F0CF96089510
:1005200001970895FC01918D828D981761F0828D5D
:10053000DF01A80FB11D5D968C91928D9F5F9F7317
:10054000928F90E008958FEF9FEF0895FC01918DB9
:10055000828D981731F0828DE80FF11D858D90E026
:1005600008958FEF9FEF0895FC01918D228D892FC3
:1005700090E0805C9F4F821B91098F7399270895AB
:100580008FE192E00E94B40221E0892B09F420E07F
:10059000822F0895FC01848DDF01A80FB11DA35A9D
:1005A000BF4F2C91848D90E001968F739927848F93
:1005B000A689B7892C93A089B1898C9183708064B6
:1005C0008C93938D848D981306C00288F389E02D57
:1005D00080818F7D80830895EF92FF920F931F9308
:1005E000CF93DF93EC0181E0888F9B8D8C8D9813E6
:1005F00005C0E889F989808185FD26C0F62E0B8D1E
:1006000010E00F5F1F4F0F731127E02E8C8DE81243
:100610000CC00FB607FCFACFE889F989808185FF05
:10062000F5CFCE010E94CA02F1CF8B8DFE01E80FFB
:10063000F11DE35AFF4FF0829FB7F8940B8FEA89C0
:10064000FB89808180620AC09FB7F894EE89FF8998
:100650006083E889F98980818370806480839FBF8B
:1006600081E090E0DF91CF911F910F91FF90EF908B
:100670000895CF93DF93EC01888D8823C9F0EA8930
:10068000FB89808185FD05C0A889B9898C9186FD8B
:100690000FC00FB607FCF5CF808185FFF2CFA88988
:1006A000B9898C9185FFEDCFCE010E94CA02E7CFB8
:1006B000DF91CF91089580E090E0892B21F00E9496
:1006C000C002811125C080E090E0892B41F080E0DC
:1006D00090E0892B21F00E94000081111CC080E075
:1006E00090E0892B41F080E090E0892B21F00E947E
:1006F0000000811113C080E090E0892BA1F080E020
:1007000090E0892B81F00E94000081110AC00895B9
:100710000E940000D8CF0E940000E1CF0E9400009C
:10072000EACF0C9400000895009769F0FC01019055
:100730000020E9F73197AF01481B590BBC018FE14D
:1007400092E00C94550280E090E008950E94A90583
:100750001F920F920FB60F9211242F933F938F93F6
:100760009F93AF93BF938091170290911802A0912D
:100770001902B0911A023091160223E0230F2D378F
:1007800020F40196A11DB11D05C026E8230F029695
:10079000A11DB11D20931602809317029093180299
:1007A000A0931902B0931A0280911B0290911C022F
:1007B000A0911D02B0911E020196A11DB11D809352
:1007C0001B0290931C02A0931D02B0931E02BF91C6
:1007D000AF919F918F913F912F910F900FBE0F90EE
:1007E0001F9018951F920F920FB60F9211240BB6FF
:1007F0000F922F933F934F935F936F937F938F93BA
:100800009F93AF93BF93EF93FF938FE192E00E948A
:10081000CA02FF91EF91BF91AF919F918F917F910C
:100820006F915F914F913F912F910F900BBE0F9061
:100830000FBE0F901F9018951F920F920FB60F9238
:1008400011240BB60F922F938F939F93EF93FF93E7
:10085000E0912F02F09130028081E0913502F09119
:10086000360282FD12C09081809138028F5F8F73B3
:1008700020913902821751F0E0913802F0E0E15EF8
:10088000FD4F958F8093380201C08081FF91EF91D9
:100890009F918F912F910F900BBE0F900FBE0F90D5
:1008A0001F901895CF93DF93CDB7DEB7A1970FB602
:1008B000F894DEBF0FBECDBF789484B5826084BD4E
:1008C00084B5816084BD85B5826085BD85B5816054
:1008D00085BD80916E00816080936E0010928100D2
:1008E000809181008260809381008091810081608D
:1008F000809381008091800081608093800080914E
:10090000B10084608093B1008091B00081608093D9
:10091000B00080919100826080939100809191005D
:10092000816080939100809190008160809390001D
:100930008091A10082608093A1008091A1008160DC
:100940008093A1008091A00081608093A00080919D
:100950002101826080932101809121018160809337
:1009600021018091200181608093200180917A0093
:10097000846080937A0080917A00826080937A000C
:1009800080917A00816080937A0080917A008068FB
:1009900080937A001092C100E5EFF1E02491E4EA3F
:1009A000F1E08491882399F090E0880F991FFC0171
:1009B000E459FE4FA591B491FC01EA57FE4F859191
:1009C00094918FB7F894EC91E22BEC938FBFE09168
:1009D0002F02F091300282E08083E0912B02F091AF
:1009E0002C021082E0912D02F0912E028FEC808378
:1009F00010923702E0913302F091340286E0808356
:100A0000E0913102F0913202808180618083E09137
:100A10003102F0913202808188608083E09131025E
:100A2000F0913202808180688083E0913102F09100
:100A3000320280818F7D80838AE0882E912CA12CC8
:100A4000B12C7E018CE1E80EF11C19A28E010F5D24
:100A50001F4F24E635E640E050E0CA01B901A50188
:100A600094010E947F05605DF80162938F01EE158D
:100A7000FF0599F7C7010E94940342E050E062E14C
:100A800072E08FE192E00E94550281E00E947E01B7
:100A90000E941D0280E00E947E010E941D020E94B1
:100AA0005B03D3CFEFE1F2E01382128288EE93E092
:100AB000A0E0B0E084839583A683B78384E092E0CE
:100AC0009183808385EC90E09587848784EC90E027
:100AD0009787868780EC90E0918B808B81EC90E00B
:100AE000938B828B82EC90E0958B848B86EC90E0EC
:100AF000978B868B118E128E138E148E0895A1E221
:100B00001A2EAA1BBB1BFD010DC0AA1FBB1FEE1F87
:100B1000FF1FA217B307E407F50720F0A21BB30BD2
:100B2000E40BF50B661F771F881F991F1A9469F74E
:100B300060957095809590959B01AC01BD01CF01AA
:100B40000895EE0FFF1F881F8BBF0790F691E02DD1
:100B5000199481E090E0F8940C94AE05F894FFCFDE
:100B600000000000EC02550283023903B402920235
:060B7000A6020D0A0000C0
:00000001FF
